:100000000C9450000C946D000C946D000C946D00D9
:100010000C946D000C946D000C946D000C946D00AC
:100020000C946D000C946D000C946D000C946D009C
:100030000C946D000C946D000C946D000C946D008C
:100040000C946D000C946D000C946F000C949D004A
:100050000C946D000C946D000C946D000C946D006C
:100060000C946D000C946D0020656570726F6D20AE
:10007000646174615F646566200000002070726FC7
:10008000676D656D206461746120000000000000F0
:1000900001000000020000006D06040005000000E1
:1000A00011241FBECFEFD8E0DEBFCDBF11E0A0E02E
:1000B000B1E0E8E9F4E002C005900D92A431B10787
:1000C000D9F721E0A4E1B1E001C01D92A936B20741
:1000D000E1F70E948B010C944A020C9400001F92DD
:1000E0000F920FB60F9211242F938F939F93EF933C
:1000F000FF938091C0009091C6008871E091160135
:10010000EF5FEF7120911501E21739F0E0931601CE
:10011000F0E0E75EFE4F908301C082E09091140111
:10012000982B90931401FF91EF919F918F912F91B4
:100130000F900FBE0F901F9018951F920F920FB641
:100140000F9211248F939F93EF93FF939091180137
:1001500080911701981769F0E0911701EF5FEF7137
:10016000E0931701F0E0E75CFE4F80818093C600CA
:1001700005C08091C1008F7D8093C100FF91EF91F8
:100180009F918F910F900FBE0F901F901895109216
:10019000180110921701109216011092150197FF85
:1001A00004C022E02093C0009F779093C500809305
:1001B000C40088E98093C10086E08093C20008955E
:1001C0009091160180911501981781F0E091150129
:1001D000EF5FEF71E0931501F0E0E75EFE4F808185
:1001E000909114011092140190E0089580E091E044
:1001F0000895909118019F5F9F71209117019217A8
:10020000E1F3E92FF0E0E75CFE4F80839093180163
:100210008091C10080628093C1000895CF93DF93E5
:10022000EC018991882319F00E94F900FACFDF913F
:10023000CF910895CF93DF93FC018491EF01219634
:10024000882321F00E94F900FE01F7CFDF91CF91C2
:1002500008950C94DC0150E00C9408029C01CB0141
:1002600050E0B9010C941802DF92EF92FF920F93C5
:100270001F93CF93DF93CDB7DEB7D62EEDB6FEB684
:10028000462F50E02DB73EB7241B350B0FB6F89420
:100290003EBF0FBE2DBF0DB71EB70F5F1F4FBC0176
:1002A000C8010E94080290E09D1521F0F8018081AC
:1002B0008F3F29F481E09D1521F080E002C09F5F0F
:1002C000F3CF0FB6F894FEBE0FBEEDBEDF91CF9117
:1002D0001F910F91FF90EF90DF900895CF93DF93E0
:1002E000CDB7DEB72A970FB6F894DEBF0FBECDBFED
:1002F0004AE0BE016F5F7F4F0E94E301CE0101968D
:100300000E940E012A960FB6F894DEBF0FBECDBF35
:10031000DF91CF91089587E690E00E94C70078941E
:1003200087E690E09093C5008093C4001AB8259AA0
:100330002D9AC0E24F9922C064E180E090E00E94D3
:10034000340181110EC068E670E080E091E00E9407
:10035000DC0144E150E060E070E080E091E00E9468
:10036000180244E150E060E070E080E091E00E941B
:10037000080280EA95E2A6E2B0E00AC06CE770E00D
:1003800080E091E00E94DC0180E492E4AFE0B0E024
:1003900025B12C2725B90197A109B109E0F780E023
:1003A00091E00E940E0164E180E090E00E9434013F
:1003B00090E00E946E01BECFFB01DC0105900D9222
:1003C0000020E1F70895BB274A3031F4992322F445
:1003D000BDE2909581959F4F0C94EF01BB27FB01E7
:1003E0005527AA27880F991FAA1FA41710F0A41B2E
:1003F00083955051B9F7A05DAA3308F0A95DA19388
:10040000009779F7B111B1931192CB010C943A0294
:10041000DC01CB01FC01F999FECF06C0F2BDE1BDC4
:10042000F89A319600B40D9241505040B8F70895B3
:10043000DC01A40FB51F4150504048F0CB01840FA0
:10044000951F2E910E94290241505040D0F70895E7
:10045000262FF999FECF92BD81BDF89A019700B47D
:10046000021639F01FBA20BD0FB6F894FA9AF99A1D
:100470000FBE0895DC01FC01672F71917723E1F72E
:10048000329704C07C916D9370836291AE17BF0761
:08049000C8F30895F894FFCFB2
:100498002072616D2064617461200000000000001A
:0404A8000000000050
:00000001FF
