:100000000C9434000C9451000C9451000C94510049
:100010000C9451000C9451000C9451000C9451001C
:100020000C9451000C9451000C9451000C9451000C
:100030000C9451000C9451000C9451000C945100FC
:100040000C9451000C9451000C9451000C945100EC
:100050000C9451000C9451000C9451000C945100DC
:100060000C9451000C94510011241FBECFEFD8E026
:10007000DEBFCDBF11E0A0E0B1E0E8E9F3E002C0EF
:1000800005900D92AE30B107D9F721E0AEE0B1E0B6
:1000900001C01D92A636B207E1F70E9448010C94F8
:1000A000CA010C94000087E68093C40088E1809325
:1000B000C1000895CF93C82F873049F4609164013F
:1000C0007091650180E091E00E9486010BC08A304A
:1000D00019F48DE00E945A008091C00085FFFCCF8A
:1000E000C093C60080E090E0CF910895EF92FF9218
:1000F0000F931F93CF93DF938C0180915E019091BA
:100100005F01892B09F0A5C0CEE0D1E08091C0004D
:1001100087FFFCCF8091C00084FDAEC08091C000FD
:1001200083FDADC08091C6008D3061F48AE0888384
:10013000B8010E945A008EE091E090935F01809395
:100140005E0187C08A3091F3893009F480E290EE35
:10015000980F9F3510F0803AB8F091E0CD35D9076F
:1001600049F4609164017091650180E091E00E9422
:100170008601CCCF7E01EFEFEE1AFE0A8883B8012C
:100180000E945A00E701C2CF823119F130F4833066
:1001900009F475C0883049F0B9CF873109F453C0EC
:1001A0008F3719F0853141F1B1CFF1E0CE30DF0763
:1001B00009F008F4ABCFB80188E00E945A00B801FA
:1001C00080E20E945A00B80188E00E945A002197FC
:1001D0009DCFB8018DE00E945A008EE0E82E81E0AC
:1001E000F82EEC16FD0608F091CFB801F7018191C9
:1001F0007F010E945A00F5CFF1E0CE30DF0709F011
:1002000008F484CFB80188E00E945A00B80180E267
:100210000E945A00B80188E00E945A002197ECCF52
:10022000FE0182917F01803209F470CFB80188E02D
:100230000E945A00B80180E20E945A00B80188E08A
:100240000E945A00E70181E0CE30D80709F040F75C
:100250005DCFE0915E01F0915F01CF010196909337
:100260005F0180935E0180818A3021F410925F01EA
:1002700010925E0190E005C08EEF9FEF02C08FEFFD
:100280009FEFDF91CF911F910F91FF90EF90089515
:10029000CF93DF9300D000D01F92CDB7DEB70E947E
:1002A000530087E690E09093C5008093C40088E0F7
:1002B0008093C10086E08093C2001AB8259A2D9AD7
:1002C00085E0E8E0F1E08E010F5F1F4FD80101905B
:1002D0000D928A95E1F780E2F82E4F9905C080E9EA
:1002E00090EDA3E0B0E004C080E492E4AFE0B0E0C1
:1002F00025B12F2525B90197A109B109E0F76AE0D9
:1003000070E0802F0E945A00E8CF0895EF92FF928C
:100310000F931F93CF93DF938B01DB0113962C91E7
:1003200021FF16C0EC01E12CF12C8991882371F09A
:10033000D8011896ED91FC911997B8010995892B70
:10034000A1F3EE24EA94FF24FA94EFCFC70102C090
:100350008FEF9FEFCDB7DEB7E6E00C94BB012A88A4
:10036000398848885F846E847D848C849B84AA84C9
:10037000B984C884DF80EE80FD800C811B81AA8156
:10038000B981CE0FD11D0FB6F894DEBF0FBECDBF21
:08039000ED010895F894FFCF80
:0E0398002A72696E672A0A0041484F4A000027
:00000001FF
